:100000000C9417010C942B010C942B010C942B01D4
:100010000C942B010C942B010C942B010C942B01B0
:100020000C942B010C942B010C942B010C942B01A0
:100030000C942B010C942B010C942B010C942B0190
:100040000C942B010C942B010C942B010C942B0180
:100050000C942B010C942B010C942B010C94FD019E
:100060000C942B010C942B010C942B010C942B0160
:100070000C942B010C942B010C942B010C942B0150
:100080000C942B010C942B010C942B010C942B0140
:100090000C942B010C942B010C942B010C942B0130
:1000A0000C942B010C942B010C942B010C942B0120
:1000B0000C942B010C942B010C942B010C942B0110
:1000C0000C942B010C942B010C942B010C942B0100
:1000D0000C942B010C942B010C942B010C942B01F0
:1000E0000C942B010C9497010C9481010C94C80181
:1000F0000C949F010C94AC010C94A8010C949301F6
:100100000C94B2010C94CE010C94C0010C947C01AF
:100110000C949B010C94BA010C94B6010C94A201AE
:100120000C94D2010C94C40100000A0B02090C0DBE
:100130000E0807030401000000000000000000009A
:1001400000000000000000000000000000000000AF
:10015000000000001211100000000000000000006C
:10016000000000000000000000000000000000008F
:100170002200250028002B002E003100340002014F
:100180000000050108010B010000210024002700E8
:100190002A002D0030003300010100000401070196
:1001A0000A010505050507050808080802020202FC
:1001B0000A0A080804040404010101010101010103
:1001C0000303030303030303040707070C0C0C0CCE
:1001D0000C0C0C0C020202020606060606060606B7
:1001E0000B0B0B0B0B0B0B0B010210202008081044
:1001F0002040102040800201020108040201010297
:10020000040810204080804020100804020180046F
:1002100002018040201008040201080402010102CA
:10022000040810204080010204081020408011249E
:100230001FBECFEFD1E2DEBFCDBF00E00CBF22E09A
:10024000A0E0B2E001C01D92AB30B207E1F70E941E
:1002500047020C9446030C94000090E0FC01E85126
:10026000FE4F24918E559E4FFC018491882399F076
:1002700090E0880F991FFC01E857FE4FA591B491BB
:10028000FC01E259FE4F859194918FB7F894EC915F
:10029000E22BEC938FBF0895282F30E0F901E85D41
:1002A000FE4F9491F901E851FE4F44912E553E4F77
:1002B000F9012491222309F435C0992311F19150B9
:1002C0009231F8F4E92FF0E08827E659FE4F8F4F7E
:1002D0000C943E039B019F017C01930197018101D6
:1002E000A201A801AC01B201B601BA01C001C4016A
:1002F0008101C801CE01D201809180008F77809367
:100300008000E22FF0E0EE0FFF1FE259FE4FA591B3
:10031000B4918FB7F894EC91611148C040954E2389
:100320004C938FBF0895809180008F7DE8CF80919E
:100330008000877FE4CF84B58F7784BDE2CF84B51A
:100340008F7DFBCF8091B0008F778093B000D9CFA5
:100350008091B0008F7DF9CF809190008F7780934E
:100360009000CFCF809190008F7DF9CF8091900049
:10037000877FF5CF8091A0008F778093A000C1CFB9
:100380008091A0008F7DF9CF8091A000877FF5CF6D
:10039000809120018F7780932001B3CF809120013D
:1003A0008F7DF9CF80912001877FF5CF4E2BB8CF7D
:1003B0003FB7F8948091070290910802A09109023A
:1003C000B0910A0226B5A89B05C02F3F19F00196EF
:1003D000A11DB11D3FBFBA2FA92F982F8827BC019F
:1003E000CD01620F711D811D911D42E0660F771FC7
:1003F000881F991F4A95D1F708951F920F920FB643
:100400000F9211242F933F938F939F93AF93BF939A
:100410008091030290910402A0910502B09106021E
:100420003091020223E0230F2D3758F50196A11DCC
:10043000B11D209302028093030290930402A093C3
:100440000502B09306028091070290910802A091E4
:100450000902B0910A020196A11DB11D8093070205
:1004600090930802A0930902B0930A02BF91AF9142
:100470009F918F913F912F910F900FBE0F901F90E2
:10048000189526E8230F0296A11DB11DD2CF7894AE
:1004900084B5826084BD84B5816084BD85B5826089
:1004A00085BD85B5816085BD80916E00816080933A
:1004B0006E001092810080918100826080938100A3
:1004C00080918100816080938100809180008160B3
:1004D000809380008091B10084608093B10080910E
:1004E000B00081608093B000809191008260809321
:1004F00091008091910081608093910080919000A3
:100500008160809390008091A10082608093A1001F
:100510008091A10081608093A1008091A000816002
:100520008093A000809121018260809321018091BD
:10053000210181608093210180912001816080935D
:10054000200180917A00846080937A0080917A0003
:10055000826080937A0080917A00816080937A0033
:1005600080917A00806880937A001092C10089E0BF
:100570000E942D018AE00E942D018BE00E942D0136
:100580008CE00E942D0100E010E0C0910002D091AB
:100590000102C130D10509F45CC0B4F5209709F41B
:1005A00047C02196C430D1050CF063C0D09301023E
:1005B000C09300020E94D8014B015C018AE0C82E62
:1005C000D12CE12CF12C0E94D801681979098A09F3
:1005D0009B09683E734081059105A8F321E0C21A8A
:1005E000D108E108F10888EE880E83E0981EA11C6E
:1005F000B11CC114D104E104F10429F7011511055E
:1006000021F20E940000C1CFC230D10541F1C330B8
:10061000D10539F660E089E00E944C0160E08AE093
:100620000E944C0160E08BE00E944C0161E00DC033
:1006300061E089E00E944C0160E08AE00E944C0188
:1006400060E08BE00E944C0160E08CE00E944C0175
:10065000A8CF60E089E00E944C0161E0EECF60E04D
:1006600089E00E944C0160E08AE00E944C0161E058
:10067000E8CF10920102109200029CCFEE0FFF1FF4
:10068000881F8BBF0790F691E02D1994F894FFCF47
:00000001FF
